{
  "contractName": "NFTLabStore",
  "abi": [
    {
      "inputs": [
        {
          "internalType": "string",
          "name": "name",
          "type": "string"
        },
        {
          "internalType": "string",
          "name": "symbol",
          "type": "string"
        }
      ],
      "stateMutability": "nonpayable",
      "type": "constructor"
    },
    {
      "anonymous": false,
      "inputs": [
        {
          "indexed": true,
          "internalType": "address",
          "name": "owner",
          "type": "address"
        },
        {
          "indexed": true,
          "internalType": "address",
          "name": "approved",
          "type": "address"
        },
        {
          "indexed": true,
          "internalType": "uint256",
          "name": "tokenId",
          "type": "uint256"
        }
      ],
      "name": "Approval",
      "type": "event"
    },
    {
      "anonymous": false,
      "inputs": [
        {
          "indexed": true,
          "internalType": "address",
          "name": "owner",
          "type": "address"
        },
        {
          "indexed": true,
          "internalType": "address",
          "name": "operator",
          "type": "address"
        },
        {
          "indexed": false,
          "internalType": "bool",
          "name": "approved",
          "type": "bool"
        }
      ],
      "name": "ApprovalForAll",
      "type": "event"
    },
    {
      "anonymous": false,
      "inputs": [
        {
          "indexed": false,
          "internalType": "address",
          "name": "artist",
          "type": "address"
        },
        {
          "indexed": false,
          "internalType": "string",
          "name": "artistId",
          "type": "string"
        },
        {
          "indexed": false,
          "internalType": "string",
          "name": "hash",
          "type": "string"
        },
        {
          "indexed": false,
          "internalType": "string",
          "name": "timestamp",
          "type": "string"
        }
      ],
      "name": "Minted",
      "type": "event"
    },
    {
      "anonymous": false,
      "inputs": [
        {
          "indexed": true,
          "internalType": "address",
          "name": "from",
          "type": "address"
        },
        {
          "indexed": true,
          "internalType": "address",
          "name": "to",
          "type": "address"
        },
        {
          "indexed": true,
          "internalType": "uint256",
          "name": "tokenId",
          "type": "uint256"
        }
      ],
      "name": "Transfer",
      "type": "event"
    },
    {
      "anonymous": false,
      "inputs": [
        {
          "indexed": false,
          "internalType": "uint256",
          "name": "tokenId",
          "type": "uint256"
        },
        {
          "indexed": false,
          "internalType": "address",
          "name": "seller",
          "type": "address"
        },
        {
          "indexed": false,
          "internalType": "string",
          "name": "sellerId",
          "type": "string"
        },
        {
          "indexed": false,
          "internalType": "address",
          "name": "buyer",
          "type": "address"
        },
        {
          "indexed": false,
          "internalType": "string",
          "name": "buyerId",
          "type": "string"
        },
        {
          "indexed": false,
          "internalType": "string",
          "name": "price",
          "type": "string"
        },
        {
          "indexed": false,
          "internalType": "string",
          "name": "timestamp",
          "type": "string"
        }
      ],
      "name": "Transferred",
      "type": "event"
    },
    {
      "inputs": [
        {
          "internalType": "address",
          "name": "to",
          "type": "address"
        },
        {
          "internalType": "uint256",
          "name": "tokenId",
          "type": "uint256"
        }
      ],
      "name": "approve",
      "outputs": [],
      "stateMutability": "nonpayable",
      "type": "function"
    },
    {
      "inputs": [
        {
          "internalType": "address",
          "name": "owner",
          "type": "address"
        }
      ],
      "name": "balanceOf",
      "outputs": [
        {
          "internalType": "uint256",
          "name": "",
          "type": "uint256"
        }
      ],
      "stateMutability": "view",
      "type": "function"
    },
    {
      "inputs": [
        {
          "internalType": "uint256",
          "name": "tokenId",
          "type": "uint256"
        }
      ],
      "name": "getApproved",
      "outputs": [
        {
          "internalType": "address",
          "name": "",
          "type": "address"
        }
      ],
      "stateMutability": "view",
      "type": "function"
    },
    {
      "inputs": [
        {
          "internalType": "address",
          "name": "owner",
          "type": "address"
        },
        {
          "internalType": "address",
          "name": "operator",
          "type": "address"
        }
      ],
      "name": "isApprovedForAll",
      "outputs": [
        {
          "internalType": "bool",
          "name": "",
          "type": "bool"
        }
      ],
      "stateMutability": "view",
      "type": "function"
    },
    {
      "inputs": [],
      "name": "name",
      "outputs": [
        {
          "internalType": "string",
          "name": "",
          "type": "string"
        }
      ],
      "stateMutability": "view",
      "type": "function"
    },
    {
      "inputs": [
        {
          "internalType": "uint256",
          "name": "tokenId",
          "type": "uint256"
        }
      ],
      "name": "ownerOf",
      "outputs": [
        {
          "internalType": "address",
          "name": "",
          "type": "address"
        }
      ],
      "stateMutability": "view",
      "type": "function"
    },
    {
      "inputs": [
        {
          "internalType": "address",
          "name": "from",
          "type": "address"
        },
        {
          "internalType": "address",
          "name": "to",
          "type": "address"
        },
        {
          "internalType": "uint256",
          "name": "tokenId",
          "type": "uint256"
        }
      ],
      "name": "safeTransferFrom",
      "outputs": [],
      "stateMutability": "nonpayable",
      "type": "function"
    },
    {
      "inputs": [
        {
          "internalType": "address",
          "name": "from",
          "type": "address"
        },
        {
          "internalType": "address",
          "name": "to",
          "type": "address"
        },
        {
          "internalType": "uint256",
          "name": "tokenId",
          "type": "uint256"
        },
        {
          "internalType": "bytes",
          "name": "_data",
          "type": "bytes"
        }
      ],
      "name": "safeTransferFrom",
      "outputs": [],
      "stateMutability": "nonpayable",
      "type": "function"
    },
    {
      "inputs": [
        {
          "internalType": "address",
          "name": "operator",
          "type": "address"
        },
        {
          "internalType": "bool",
          "name": "approved",
          "type": "bool"
        }
      ],
      "name": "setApprovalForAll",
      "outputs": [],
      "stateMutability": "nonpayable",
      "type": "function"
    },
    {
      "inputs": [
        {
          "internalType": "bytes4",
          "name": "interfaceId",
          "type": "bytes4"
        }
      ],
      "name": "supportsInterface",
      "outputs": [
        {
          "internalType": "bool",
          "name": "",
          "type": "bool"
        }
      ],
      "stateMutability": "view",
      "type": "function"
    },
    {
      "inputs": [],
      "name": "symbol",
      "outputs": [
        {
          "internalType": "string",
          "name": "",
          "type": "string"
        }
      ],
      "stateMutability": "view",
      "type": "function"
    },
    {
      "inputs": [
        {
          "internalType": "uint256",
          "name": "tokenId",
          "type": "uint256"
        }
      ],
      "name": "tokenURI",
      "outputs": [
        {
          "internalType": "string",
          "name": "",
          "type": "string"
        }
      ],
      "stateMutability": "view",
      "type": "function"
    },
    {
      "inputs": [
        {
          "internalType": "address",
          "name": "from",
          "type": "address"
        },
        {
          "internalType": "address",
          "name": "to",
          "type": "address"
        },
        {
          "internalType": "uint256",
          "name": "tokenId",
          "type": "uint256"
        }
      ],
      "name": "transferFrom",
      "outputs": [],
      "stateMutability": "nonpayable",
      "type": "function"
    },
    {
      "inputs": [
        {
          "components": [
            {
              "internalType": "address",
              "name": "artist",
              "type": "address"
            },
            {
              "internalType": "string",
              "name": "artistId",
              "type": "string"
            },
            {
              "internalType": "string",
              "name": "hash",
              "type": "string"
            },
            {
              "internalType": "string",
              "name": "timestamp",
              "type": "string"
            }
          ],
          "internalType": "struct NFTLabStore.NFTLab",
          "name": "nft",
          "type": "tuple"
        }
      ],
      "name": "mint",
      "outputs": [
        {
          "internalType": "uint256",
          "name": "",
          "type": "uint256"
        }
      ],
      "stateMutability": "nonpayable",
      "type": "function"
    },
    {
      "inputs": [
        {
          "components": [
            {
              "internalType": "uint256",
              "name": "tokenId",
              "type": "uint256"
            },
            {
              "internalType": "address",
              "name": "seller",
              "type": "address"
            },
            {
              "internalType": "string",
              "name": "sellerId",
              "type": "string"
            },
            {
              "internalType": "address",
              "name": "buyer",
              "type": "address"
            },
            {
              "internalType": "string",
              "name": "buyerId",
              "type": "string"
            },
            {
              "internalType": "string",
              "name": "price",
              "type": "string"
            },
            {
              "internalType": "string",
              "name": "timestamp",
              "type": "string"
            }
          ],
          "internalType": "struct NFTLabStore.NFTTransaction",
          "name": "transaction",
          "type": "tuple"
        }
      ],
      "name": "transfer",
      "outputs": [],
      "stateMutability": "nonpayable",
      "type": "function"
    },
    {
      "inputs": [
        {
          "internalType": "uint256",
          "name": "tokenId",
          "type": "uint256"
        }
      ],
      "name": "getHistory",
      "outputs": [
        {
          "components": [
            {
              "internalType": "uint256",
              "name": "tokenId",
              "type": "uint256"
            },
            {
              "internalType": "address",
              "name": "seller",
              "type": "address"
            },
            {
              "internalType": "string",
              "name": "sellerId",
              "type": "string"
            },
            {
              "internalType": "address",
              "name": "buyer",
              "type": "address"
            },
            {
              "internalType": "string",
              "name": "buyerId",
              "type": "string"
            },
            {
              "internalType": "string",
              "name": "price",
              "type": "string"
            },
            {
              "internalType": "string",
              "name": "timestamp",
              "type": "string"
            }
          ],
          "internalType": "struct NFTLabStore.NFTTransaction[]",
          "name": "",
          "type": "tuple[]"
        }
      ],
      "stateMutability": "view",
      "type": "function"
    }
  ],
  "bytecode": "0x60806040523480156200001157600080fd5b5060405162003d7938038062003d798339818101604052810190620000379190620001d8565b8181816000908051906020019062000051929190620000b6565b5080600190805190602001906200006a929190620000b6565b50505033600760006101000a81548173ffffffffffffffffffffffffffffffffffffffff021916908373ffffffffffffffffffffffffffffffffffffffff16021790555050506200037c565b828054620000c490620002e8565b90600052602060002090601f016020900481019282620000e8576000855562000134565b82601f106200010357805160ff191683800117855562000134565b8280016001018555821562000134579182015b828111156200013357825182559160200191906001019062000116565b5b50905062000143919062000147565b5090565b5b808211156200016257600081600090555060010162000148565b5090565b60006200017d62000177846200027f565b6200024b565b9050828152602081018484840111156200019657600080fd5b620001a3848285620002b2565b509392505050565b600082601f830112620001bd57600080fd5b8151620001cf84826020860162000166565b91505092915050565b60008060408385031215620001ec57600080fd5b600083015167ffffffffffffffff8111156200020757600080fd5b6200021585828601620001ab565b925050602083015167ffffffffffffffff8111156200023357600080fd5b6200024185828601620001ab565b9150509250929050565b6000604051905081810181811067ffffffffffffffff821117156200027557620002746200034d565b5b8060405250919050565b600067ffffffffffffffff8211156200029d576200029c6200034d565b5b601f19601f8301169050602081019050919050565b60005b83811015620002d2578082015181840152602081019050620002b5565b83811115620002e2576000848401525b50505050565b600060028204905060018216806200030157607f821691505b602082108114156200031857620003176200031e565b5b50919050565b7f4e487b7100000000000000000000000000000000000000000000000000000000600052602260045260246000fd5b7f4e487b7100000000000000000000000000000000000000000000000000000000600052604160045260246000fd5b6139ed806200038c6000396000f3fe608060405234801561001057600080fd5b50600436106101005760003560e01c806370a0823111610097578063c8691b2a11610066578063c8691b2a146102bd578063c87b56dd146102ed578063e985e9c51461031d578063ff6a1e141461034d57610100565b806370a082311461023757806395d89b4114610267578063a22cb46514610285578063b88d4fde146102a157610100565b8063136c6d55116100d3578063136c6d551461019f57806323b872dd146101cf57806342842e0e146101eb5780636352211e1461020757610100565b806301ffc9a71461010557806306fdde0314610135578063081812fc14610153578063095ea7b314610183575b600080fd5b61011f600480360381019061011a9190612746565b610369565b60405161012c9190613230565b60405180910390f35b61013d61044b565b60405161014a919061324b565b60405180910390f35b61016d6004803603810190610168919061281a565b6104dd565b60405161017a919061314d565b60405180910390f35b61019d6004803603810190610198919061270a565b610562565b005b6101b960048036038101906101b49190612798565b61067a565b6040516101c691906134ad565b60405180910390f35b6101e960048036038101906101e49190612604565b6108fc565b005b61020560048036038101906102009190612604565b61095c565b005b610221600480360381019061021c919061281a565b61097c565b60405161022e919061314d565b60405180910390f35b610251600480360381019061024c919061259f565b610a2e565b60405161025e91906134ad565b60405180910390f35b61026f610ae6565b60405161027c919061324b565b60405180910390f35b61029f600480360381019061029a91906126ce565b610b78565b005b6102bb60048036038101906102b69190612653565b610cf9565b005b6102d760048036038101906102d2919061281a565b610d5b565b6040516102e4919061320e565b60405180910390f35b6103076004803603810190610302919061281a565b61115b565b604051610314919061324b565b60405180910390f35b610337600480360381019061033291906125c8565b6112ad565b6040516103449190613230565b60405180910390f35b610367600480360381019061036291906127d9565b611341565b005b60007f80ac58cd000000000000000000000000000000000000000000000000000000007bffffffffffffffffffffffffffffffffffffffffffffffffffffffff1916827bffffffffffffffffffffffffffffffffffffffffffffffffffffffff1916148061043457507f5b5e139f000000000000000000000000000000000000000000000000000000007bffffffffffffffffffffffffffffffffffffffffffffffffffffffff1916827bffffffffffffffffffffffffffffffffffffffffffffffffffffffff1916145b806104445750610443826115ab565b5b9050919050565b60606000805461045a906137e2565b80601f0160208091040260200160405190810160405280929190818152602001828054610486906137e2565b80156104d35780601f106104a8576101008083540402835291602001916104d3565b820191906000526020600020905b8154815290600101906020018083116104b657829003601f168201915b5050505050905090565b60006104e882611615565b610527576040517f08c379a000000000000000000000000000000000000000000000000000000000815260040161051e906133ed565b60405180910390fd5b6004600083815260200190815260200160002060009054906101000a900473ffffffffffffffffffffffffffffffffffffffff169050919050565b600061056d8261097c565b90508073ffffffffffffffffffffffffffffffffffffffff168373ffffffffffffffffffffffffffffffffffffffff1614156105de576040517f08c379a00000000000000000000000000000000000000000000000000000000081526004016105d59061344d565b60405180910390fd5b8073ffffffffffffffffffffffffffffffffffffffff166105fd611681565b73ffffffffffffffffffffffffffffffffffffffff16148061062c575061062b81610626611681565b6112ad565b5b61066b576040517f08c379a00000000000000000000000000000000000000000000000000000000081526004016106629061332d565b60405180910390fd5b6106758383611689565b505050565b6000600760009054906101000a900473ffffffffffffffffffffffffffffffffffffffff1673ffffffffffffffffffffffffffffffffffffffff163373ffffffffffffffffffffffffffffffffffffffff161461070c576040517f08c379a0000000000000000000000000000000000000000000000000000000008152600401610703906132ed565b60405180910390fd5b6000600a83604001516040516107229190613112565b908152602001604051809103902060009054906101000a900460ff1660ff1614610781576040517f08c379a00000000000000000000000000000000000000000000000000000000081526004016107789061346d565b60405180910390fd5b61078b6008611742565b60006107976008611758565b90506107a7836000015182611766565b6107b5818460400151611784565b826009600083815260200190815260200160002060008201518160000160006101000a81548173ffffffffffffffffffffffffffffffffffffffff021916908373ffffffffffffffffffffffffffffffffffffffff160217905550602082015181600101908051906020019061082c9291906121f7565b5060408201518160020190805190602001906108499291906121f7565b5060608201518160030190805190602001906108669291906121f7565b509050506001600a84604001516040516108809190613112565b908152602001604051809103902060006101000a81548160ff021916908360ff1602179055507fc7513b939beca9cacdf3957eff8a462d2f637eab930ac9b0474dc6c1eff4a3ff83600001518460200151856040015186606001516040516108eb94939291906131b4565b60405180910390a180915050919050565b61090d610907611681565b826117f8565b61094c576040517f08c379a00000000000000000000000000000000000000000000000000000000081526004016109439061348d565b60405180910390fd5b6109578383836118d6565b505050565b61097783838360405180602001604052806000815250610cf9565b505050565b6000806002600084815260200190815260200160002060009054906101000a900473ffffffffffffffffffffffffffffffffffffffff169050600073ffffffffffffffffffffffffffffffffffffffff168173ffffffffffffffffffffffffffffffffffffffff161415610a25576040517f08c379a0000000000000000000000000000000000000000000000000000000008152600401610a1c9061336d565b60405180910390fd5b80915050919050565b60008073ffffffffffffffffffffffffffffffffffffffff168273ffffffffffffffffffffffffffffffffffffffff161415610a9f576040517f08c379a0000000000000000000000000000000000000000000000000000000008152600401610a969061334d565b60405180910390fd5b600360008373ffffffffffffffffffffffffffffffffffffffff1673ffffffffffffffffffffffffffffffffffffffff168152602001908152602001600020549050919050565b606060018054610af5906137e2565b80601f0160208091040260200160405190810160405280929190818152602001828054610b21906137e2565b8015610b6e5780601f10610b4357610100808354040283529160200191610b6e565b820191906000526020600020905b815481529060010190602001808311610b5157829003601f168201915b5050505050905090565b610b80611681565b73ffffffffffffffffffffffffffffffffffffffff168273ffffffffffffffffffffffffffffffffffffffff161415610bee576040517f08c379a0000000000000000000000000000000000000000000000000000000008152600401610be5906132cd565b60405180910390fd5b8060056000610bfb611681565b73ffffffffffffffffffffffffffffffffffffffff1673ffffffffffffffffffffffffffffffffffffffff16815260200190815260200160002060008473ffffffffffffffffffffffffffffffffffffffff1673ffffffffffffffffffffffffffffffffffffffff16815260200190815260200160002060006101000a81548160ff0219169083151502179055508173ffffffffffffffffffffffffffffffffffffffff16610ca8611681565b73ffffffffffffffffffffffffffffffffffffffff167f17307eab39ab6107e8899845ad3d59bd9653f200f220920489ca2b5937696c3183604051610ced9190613230565b60405180910390a35050565b610d0a610d04611681565b836117f8565b610d49576040517f08c379a0000000000000000000000000000000000000000000000000000000008152600401610d409061348d565b60405180910390fd5b610d5584848484611b32565b50505050565b6060600760009054906101000a900473ffffffffffffffffffffffffffffffffffffffff1673ffffffffffffffffffffffffffffffffffffffff163373ffffffffffffffffffffffffffffffffffffffff1614610ded576040517f08c379a0000000000000000000000000000000000000000000000000000000008152600401610de4906132ed565b60405180910390fd5b600b6000838152602001908152602001600020805480602002602001604051908101604052809291908181526020016000905b8282101561115057838290600052602060002090600702016040518060e0016040529081600082015481526020016001820160009054906101000a900473ffffffffffffffffffffffffffffffffffffffff1673ffffffffffffffffffffffffffffffffffffffff1673ffffffffffffffffffffffffffffffffffffffff168152602001600282018054610eb3906137e2565b80601f0160208091040260200160405190810160405280929190818152602001828054610edf906137e2565b8015610f2c5780601f10610f0157610100808354040283529160200191610f2c565b820191906000526020600020905b815481529060010190602001808311610f0f57829003601f168201915b505050505081526020016003820160009054906101000a900473ffffffffffffffffffffffffffffffffffffffff1673ffffffffffffffffffffffffffffffffffffffff1673ffffffffffffffffffffffffffffffffffffffff168152602001600482018054610f9b906137e2565b80601f0160208091040260200160405190810160405280929190818152602001828054610fc7906137e2565b80156110145780601f10610fe957610100808354040283529160200191611014565b820191906000526020600020905b815481529060010190602001808311610ff757829003601f168201915b5050505050815260200160058201805461102d906137e2565b80601f0160208091040260200160405190810160405280929190818152602001828054611059906137e2565b80156110a65780601f1061107b576101008083540402835291602001916110a6565b820191906000526020600020905b81548152906001019060200180831161108957829003601f168201915b505050505081526020016006820180546110bf906137e2565b80601f01602080910402602001604051908101604052809291908181526020018280546110eb906137e2565b80156111385780601f1061110d57610100808354040283529160200191611138565b820191906000526020600020905b81548152906001019060200180831161111b57829003601f168201915b50505050508152505081526020019060010190610e20565b505050509050919050565b606061116682611615565b6111a5576040517f08c379a000000000000000000000000000000000000000000000000000000000815260040161119c906133cd565b60405180910390fd5b60006006600084815260200190815260200160002080546111c5906137e2565b80601f01602080910402602001604051908101604052809291908181526020018280546111f1906137e2565b801561123e5780601f106112135761010080835404028352916020019161123e565b820191906000526020600020905b81548152906001019060200180831161122157829003601f168201915b50505050509050600061124f611b8e565b90506000815114156112655781925050506112a8565b60008251111561129a578082604051602001611282929190613129565b604051602081830303815290604052925050506112a8565b6112a384611bcb565b925050505b919050565b6000600560008473ffffffffffffffffffffffffffffffffffffffff1673ffffffffffffffffffffffffffffffffffffffff16815260200190815260200160002060008373ffffffffffffffffffffffffffffffffffffffff1673ffffffffffffffffffffffffffffffffffffffff16815260200190815260200160002060009054906101000a900460ff16905092915050565b600760009054906101000a900473ffffffffffffffffffffffffffffffffffffffff1673ffffffffffffffffffffffffffffffffffffffff163373ffffffffffffffffffffffffffffffffffffffff16146113d1576040517f08c379a00000000000000000000000000000000000000000000000000000000081526004016113c8906132ed565b60405180910390fd5b6000816000015190506113fd826020015183606001518360405180602001604052806000815250610cf9565b600b60008281526020019081526020016000208290806001815401808255809150506001900390600052602060002090600702016000909190919091506000820151816000015560208201518160010160006101000a81548173ffffffffffffffffffffffffffffffffffffffff021916908373ffffffffffffffffffffffffffffffffffffffff16021790555060408201518160020190805190602001906114a79291906121f7565b5060608201518160030160006101000a81548173ffffffffffffffffffffffffffffffffffffffff021916908373ffffffffffffffffffffffffffffffffffffffff160217905550608082015181600401908051906020019061150b9291906121f7565b5060a08201518160050190805190602001906115289291906121f7565b5060c08201518160060190805190602001906115459291906121f7565b5050507fbca74d7b3026cf67de2a959bcc515edcd164a1e096a87b6db2e51e374046872c826000015183602001518460400151856060015186608001518760a001518860c0015160405161159f97969594939291906134c8565b60405180910390a15050565b60007f01ffc9a7000000000000000000000000000000000000000000000000000000007bffffffffffffffffffffffffffffffffffffffffffffffffffffffff1916827bffffffffffffffffffffffffffffffffffffffffffffffffffffffff1916149050919050565b60008073ffffffffffffffffffffffffffffffffffffffff166002600084815260200190815260200160002060009054906101000a900473ffffffffffffffffffffffffffffffffffffffff1673ffffffffffffffffffffffffffffffffffffffff1614159050919050565b600033905090565b816004600083815260200190815260200160002060006101000a81548173ffffffffffffffffffffffffffffffffffffffff021916908373ffffffffffffffffffffffffffffffffffffffff160217905550808273ffffffffffffffffffffffffffffffffffffffff166116fc8361097c565b73ffffffffffffffffffffffffffffffffffffffff167f8c5be1e5ebec7d5bd14f71427d1e84f3dd0314c0f7b2291e5b200ac8c7c3b92560405160405180910390a45050565b6001816000016000828254019250508190555050565b600081600001549050919050565b611780828260405180602001604052806000815250611c72565b5050565b61178d82611615565b6117cc576040517f08c379a00000000000000000000000000000000000000000000000000000000081526004016117c39061338d565b60405180910390fd5b806006600084815260200190815260200160002090805190602001906117f39291906121f7565b505050565b600061180382611615565b611842576040517f08c379a00000000000000000000000000000000000000000000000000000000081526004016118399061330d565b60405180910390fd5b600061184d8361097c565b90508073ffffffffffffffffffffffffffffffffffffffff168473ffffffffffffffffffffffffffffffffffffffff1614806118bc57508373ffffffffffffffffffffffffffffffffffffffff166118a4846104dd565b73ffffffffffffffffffffffffffffffffffffffff16145b806118cd57506118cc81856112ad565b5b91505092915050565b8273ffffffffffffffffffffffffffffffffffffffff166118f68261097c565b73ffffffffffffffffffffffffffffffffffffffff161461194c576040517f08c379a00000000000000000000000000000000000000000000000000000000081526004016119439061340d565b60405180910390fd5b600073ffffffffffffffffffffffffffffffffffffffff168273ffffffffffffffffffffffffffffffffffffffff1614156119bc576040517f08c379a00000000000000000000000000000000000000000000000000000000081526004016119b3906132ad565b60405180910390fd5b6119c7838383611ccd565b6119d2600082611689565b6001600360008573ffffffffffffffffffffffffffffffffffffffff1673ffffffffffffffffffffffffffffffffffffffff1681526020019081526020016000206000828254611a2291906136f8565b925050819055506001600360008473ffffffffffffffffffffffffffffffffffffffff1673ffffffffffffffffffffffffffffffffffffffff1681526020019081526020016000206000828254611a799190613671565b92505081905550816002600083815260200190815260200160002060006101000a81548173ffffffffffffffffffffffffffffffffffffffff021916908373ffffffffffffffffffffffffffffffffffffffff160217905550808273ffffffffffffffffffffffffffffffffffffffff168473ffffffffffffffffffffffffffffffffffffffff167fddf252ad1be2c89b69c2b068fc378daa952ba7f163c4a11628f55a4df523b3ef60405160405180910390a4505050565b611b3d8484846118d6565b611b4984848484611cd2565b611b88576040517f08c379a0000000000000000000000000000000000000000000000000000000008152600401611b7f9061326d565b60405180910390fd5b50505050565b60606040518060400160405280601d81526020017f68747470733a2f2f676174657761792e70696e6174612e636c6f75642f000000815250905090565b6060611bd682611615565b611c15576040517f08c379a0000000000000000000000000000000000000000000000000000000008152600401611c0c9061342d565b60405180910390fd5b6000611c1f611b8e565b90506000815111611c3f5760405180602001604052806000815250611c6a565b80611c4984611e69565b604051602001611c5a929190613129565b6040516020818303038152906040525b915050919050565b611c7c8383612016565b611c896000848484611cd2565b611cc8576040517f08c379a0000000000000000000000000000000000000000000000000000000008152600401611cbf9061326d565b60405180910390fd5b505050565b505050565b6000611cf38473ffffffffffffffffffffffffffffffffffffffff166121e4565b15611e5c578373ffffffffffffffffffffffffffffffffffffffff1663150b7a02611d1c611681565b8786866040518563ffffffff1660e01b8152600401611d3e9493929190613168565b602060405180830381600087803b158015611d5857600080fd5b505af1925050508015611d8957506040513d601f19601f82011682018060405250810190611d86919061276f565b60015b611e0c573d8060008114611db9576040519150601f19603f3d011682016040523d82523d6000602084013e611dbe565b606091505b50600081511415611e04576040517f08c379a0000000000000000000000000000000000000000000000000000000008152600401611dfb9061326d565b60405180910390fd5b805181602001fd5b63150b7a0260e01b7bffffffffffffffffffffffffffffffffffffffffffffffffffffffff1916817bffffffffffffffffffffffffffffffffffffffffffffffffffffffff191614915050611e61565b600190505b949350505050565b60606000821415611eb1576040518060400160405280600181526020017f30000000000000000000000000000000000000000000000000000000000000008152509050612011565b600082905060005b60008214611ee3578080611ecc90613814565b915050600a82611edc91906136c7565b9150611eb9565b60008167ffffffffffffffff811115611f25577f4e487b7100000000000000000000000000000000000000000000000000000000600052604160045260246000fd5b6040519080825280601f01601f191660200182016040528015611f575781602001600182028036833780820191505090505b5090505b6000851461200a57600182611f7091906136f8565b9150600a85611f7f919061385d565b6030611f8b9190613671565b60f81b818381518110611fc7577f4e487b7100000000000000000000000000000000000000000000000000000000600052603260045260246000fd5b60200101907effffffffffffffffffffffffffffffffffffffffffffffffffffffffffffff1916908160001a905350600a8561200391906136c7565b9450611f5b565b8093505050505b919050565b600073ffffffffffffffffffffffffffffffffffffffff168273ffffffffffffffffffffffffffffffffffffffff161415612086576040517f08c379a000000000000000000000000000000000000000000000000000000000815260040161207d906133ad565b60405180910390fd5b61208f81611615565b156120cf576040517f08c379a00000000000000000000000000000000000000000000000000000000081526004016120c69061328d565b60405180910390fd5b6120db60008383611ccd565b6001600360008473ffffffffffffffffffffffffffffffffffffffff1673ffffffffffffffffffffffffffffffffffffffff168152602001908152602001600020600082825461212b9190613671565b92505081905550816002600083815260200190815260200160002060006101000a81548173ffffffffffffffffffffffffffffffffffffffff021916908373ffffffffffffffffffffffffffffffffffffffff160217905550808273ffffffffffffffffffffffffffffffffffffffff16600073ffffffffffffffffffffffffffffffffffffffff167fddf252ad1be2c89b69c2b068fc378daa952ba7f163c4a11628f55a4df523b3ef60405160405180910390a45050565b600080823b905060008111915050919050565b828054612203906137e2565b90600052602060002090601f016020900481019282612225576000855561226c565b82601f1061223e57805160ff191683800117855561226c565b8280016001018555821561226c579182015b8281111561226b578251825591602001919060010190612250565b5b509050612279919061227d565b5090565b5b8082111561229657600081600090555060010161227e565b5090565b60006122ad6122a884613584565b613553565b9050828152602081018484840111156122c557600080fd5b6122d08482856137a0565b509392505050565b60006122eb6122e6846135b4565b613553565b90508281526020810184848401111561230357600080fd5b61230e8482856137a0565b509392505050565b6000813590506123258161395b565b92915050565b60008135905061233a81613972565b92915050565b60008135905061234f81613989565b92915050565b60008151905061236481613989565b92915050565b600082601f83011261237b57600080fd5b813561238b84826020860161229a565b91505092915050565b600082601f8301126123a557600080fd5b81356123b58482602086016122d8565b91505092915050565b6000608082840312156123d057600080fd5b6123da6080613553565b905060006123ea84828501612316565b600083015250602082013567ffffffffffffffff81111561240a57600080fd5b61241684828501612394565b602083015250604082013567ffffffffffffffff81111561243657600080fd5b61244284828501612394565b604083015250606082013567ffffffffffffffff81111561246257600080fd5b61246e84828501612394565b60608301525092915050565b600060e0828403121561248c57600080fd5b61249660e0613553565b905060006124a68482850161258a565b60008301525060206124ba84828501612316565b602083015250604082013567ffffffffffffffff8111156124da57600080fd5b6124e684828501612394565b60408301525060606124fa84828501612316565b606083015250608082013567ffffffffffffffff81111561251a57600080fd5b61252684828501612394565b60808301525060a082013567ffffffffffffffff81111561254657600080fd5b61255284828501612394565b60a08301525060c082013567ffffffffffffffff81111561257257600080fd5b61257e84828501612394565b60c08301525092915050565b600081359050612599816139a0565b92915050565b6000602082840312156125b157600080fd5b60006125bf84828501612316565b91505092915050565b600080604083850312156125db57600080fd5b60006125e985828601612316565b92505060206125fa85828601612316565b9150509250929050565b60008060006060848603121561261957600080fd5b600061262786828701612316565b935050602061263886828701612316565b92505060406126498682870161258a565b9150509250925092565b6000806000806080858703121561266957600080fd5b600061267787828801612316565b945050602061268887828801612316565b93505060406126998782880161258a565b925050606085013567ffffffffffffffff8111156126b657600080fd5b6126c28782880161236a565b91505092959194509250565b600080604083850312156126e157600080fd5b60006126ef85828601612316565b92505060206127008582860161232b565b9150509250929050565b6000806040838503121561271d57600080fd5b600061272b85828601612316565b925050602061273c8582860161258a565b9150509250929050565b60006020828403121561275857600080fd5b600061276684828501612340565b91505092915050565b60006020828403121561278157600080fd5b600061278f84828501612355565b91505092915050565b6000602082840312156127aa57600080fd5b600082013567ffffffffffffffff8111156127c457600080fd5b6127d0848285016123be565b91505092915050565b6000602082840312156127eb57600080fd5b600082013567ffffffffffffffff81111561280557600080fd5b6128118482850161247a565b91505092915050565b60006020828403121561282c57600080fd5b600061283a8482850161258a565b91505092915050565b600061284f8383613043565b905092915050565b6128608161372c565b82525050565b61286f8161372c565b82525050565b6000612880826135f4565b61288a8185613622565b93508360208202850161289c856135e4565b8060005b858110156128d857848403895281516128b98582612843565b94506128c483613615565b925060208a019950506001810190506128a0565b50829750879550505050505092915050565b6128f38161373e565b82525050565b6000612904826135ff565b61290e8185613633565b935061291e8185602086016137af565b6129278161394a565b840191505092915050565b600061293d8261360a565b6129478185613644565b93506129578185602086016137af565b6129608161394a565b840191505092915050565b60006129768261360a565b6129808185613655565b93506129908185602086016137af565b6129998161394a565b840191505092915050565b60006129af8261360a565b6129b98185613666565b93506129c98185602086016137af565b80840191505092915050565b60006129e2603283613655565b91507f4552433732313a207472616e7366657220746f206e6f6e20455243373231526560008301527f63656976657220696d706c656d656e74657200000000000000000000000000006020830152604082019050919050565b6000612a48601c83613655565b91507f4552433732313a20746f6b656e20616c7265616479206d696e746564000000006000830152602082019050919050565b6000612a88602483613655565b91507f4552433732313a207472616e7366657220746f20746865207a65726f2061646460008301527f72657373000000000000000000000000000000000000000000000000000000006020830152604082019050919050565b6000612aee601983613655565b91507f4552433732313a20617070726f766520746f2063616c6c6572000000000000006000830152602082019050919050565b6000612b2e602083613655565b91507f4f6e6c79206f776e65722063616e20646f2074686973206f7065726174696f6e6000830152602082019050919050565b6000612b6e602c83613655565b91507f4552433732313a206f70657261746f7220717565727920666f72206e6f6e657860008301527f697374656e7420746f6b656e00000000000000000000000000000000000000006020830152604082019050919050565b6000612bd4603883613655565b91507f4552433732313a20617070726f76652063616c6c6572206973206e6f74206f7760008301527f6e6572206e6f7220617070726f76656420666f7220616c6c00000000000000006020830152604082019050919050565b6000612c3a602a83613655565b91507f4552433732313a2062616c616e636520717565727920666f7220746865207a6560008301527f726f2061646472657373000000000000000000000000000000000000000000006020830152604082019050919050565b6000612ca0602983613655565b91507f4552433732313a206f776e657220717565727920666f72206e6f6e657869737460008301527f656e7420746f6b656e00000000000000000000000000000000000000000000006020830152604082019050919050565b6000612d06602e83613655565b91507f45524337323155524953746f726167653a2055524920736574206f66206e6f6e60008301527f6578697374656e7420746f6b656e0000000000000000000000000000000000006020830152604082019050919050565b6000612d6c602083613655565b91507f4552433732313a206d696e7420746f20746865207a65726f20616464726573736000830152602082019050919050565b6000612dac603183613655565b91507f45524337323155524953746f726167653a2055524920717565727920666f722060008301527f6e6f6e6578697374656e7420746f6b656e0000000000000000000000000000006020830152604082019050919050565b6000612e12602c83613655565b91507f4552433732313a20617070726f76656420717565727920666f72206e6f6e657860008301527f697374656e7420746f6b656e00000000000000000000000000000000000000006020830152604082019050919050565b6000612e78602983613655565b91507f4552433732313a207472616e73666572206f6620746f6b656e2074686174206960008301527f73206e6f74206f776e00000000000000000000000000000000000000000000006020830152604082019050919050565b6000612ede602f83613655565b91507f4552433732314d657461646174613a2055524920717565727920666f72206e6f60008301527f6e6578697374656e7420746f6b656e00000000000000000000000000000000006020830152604082019050919050565b6000612f44602183613655565b91507f4552433732313a20617070726f76616c20746f2063757272656e74206f776e6560008301527f72000000000000000000000000000000000000000000000000000000000000006020830152604082019050919050565b6000612faa601083613655565b91507f546f6b656e2065786973747320796574000000000000000000000000000000006000830152602082019050919050565b6000612fea603183613655565b91507f4552433732313a207472616e736665722063616c6c6572206973206e6f74206f60008301527f776e6572206e6f7220617070726f7665640000000000000000000000000000006020830152604082019050919050565b600060e08301600083015161305b60008601826130f4565b50602083015161306e6020860182612857565b50604083015184820360408601526130868282612932565b915050606083015161309b6060860182612857565b50608083015184820360808601526130b38282612932565b91505060a083015184820360a08601526130cd8282612932565b91505060c083015184820360c08601526130e78282612932565b9150508091505092915050565b6130fd81613796565b82525050565b61310c81613796565b82525050565b600061311e82846129a4565b915081905092915050565b600061313582856129a4565b915061314182846129a4565b91508190509392505050565b60006020820190506131626000830184612866565b92915050565b600060808201905061317d6000830187612866565b61318a6020830186612866565b6131976040830185613103565b81810360608301526131a981846128f9565b905095945050505050565b60006080820190506131c96000830187612866565b81810360208301526131db818661296b565b905081810360408301526131ef818561296b565b90508181036060830152613203818461296b565b905095945050505050565b600060208201905081810360008301526132288184612875565b905092915050565b600060208201905061324560008301846128ea565b92915050565b60006020820190508181036000830152613265818461296b565b905092915050565b60006020820190508181036000830152613286816129d5565b9050919050565b600060208201905081810360008301526132a681612a3b565b9050919050565b600060208201905081810360008301526132c681612a7b565b9050919050565b600060208201905081810360008301526132e681612ae1565b9050919050565b6000602082019050818103600083015261330681612b21565b9050919050565b6000602082019050818103600083015261332681612b61565b9050919050565b6000602082019050818103600083015261334681612bc7565b9050919050565b6000602082019050818103600083015261336681612c2d565b9050919050565b6000602082019050818103600083015261338681612c93565b9050919050565b600060208201905081810360008301526133a681612cf9565b9050919050565b600060208201905081810360008301526133c681612d5f565b9050919050565b600060208201905081810360008301526133e681612d9f565b9050919050565b6000602082019050818103600083015261340681612e05565b9050919050565b6000602082019050818103600083015261342681612e6b565b9050919050565b6000602082019050818103600083015261344681612ed1565b9050919050565b6000602082019050818103600083015261346681612f37565b9050919050565b6000602082019050818103600083015261348681612f9d565b9050919050565b600060208201905081810360008301526134a681612fdd565b9050919050565b60006020820190506134c26000830184613103565b92915050565b600060e0820190506134dd600083018a613103565b6134ea6020830189612866565b81810360408301526134fc818861296b565b905061350b6060830187612866565b818103608083015261351d818661296b565b905081810360a0830152613531818561296b565b905081810360c0830152613545818461296b565b905098975050505050505050565b6000604051905081810181811067ffffffffffffffff8211171561357a5761357961391b565b5b8060405250919050565b600067ffffffffffffffff82111561359f5761359e61391b565b5b601f19601f8301169050602081019050919050565b600067ffffffffffffffff8211156135cf576135ce61391b565b5b601f19601f8301169050602081019050919050565b6000819050602082019050919050565b600081519050919050565b600081519050919050565b600081519050919050565b6000602082019050919050565b600082825260208201905092915050565b600082825260208201905092915050565b600082825260208201905092915050565b600082825260208201905092915050565b600081905092915050565b600061367c82613796565b915061368783613796565b9250827fffffffffffffffffffffffffffffffffffffffffffffffffffffffffffffffff038211156136bc576136bb61388e565b5b828201905092915050565b60006136d282613796565b91506136dd83613796565b9250826136ed576136ec6138bd565b5b828204905092915050565b600061370382613796565b915061370e83613796565b9250828210156137215761372061388e565b5b828203905092915050565b600061373782613776565b9050919050565b60008115159050919050565b60007fffffffff0000000000000000000000000000000000000000000000000000000082169050919050565b600073ffffffffffffffffffffffffffffffffffffffff82169050919050565b6000819050919050565b82818337600083830152505050565b60005b838110156137cd5780820151818401526020810190506137b2565b838111156137dc576000848401525b50505050565b600060028204905060018216806137fa57607f821691505b6020821081141561380e5761380d6138ec565b5b50919050565b600061381f82613796565b91507fffffffffffffffffffffffffffffffffffffffffffffffffffffffffffffffff8214156138525761385161388e565b5b600182019050919050565b600061386882613796565b915061387383613796565b925082613883576138826138bd565b5b828206905092915050565b7f4e487b7100000000000000000000000000000000000000000000000000000000600052601160045260246000fd5b7f4e487b7100000000000000000000000000000000000000000000000000000000600052601260045260246000fd5b7f4e487b7100000000000000000000000000000000000000000000000000000000600052602260045260246000fd5b7f4e487b7100000000000000000000000000000000000000000000000000000000600052604160045260246000fd5b6000601f19601f8301169050919050565b6139648161372c565b811461396f57600080fd5b50565b61397b8161373e565b811461398657600080fd5b50565b6139928161374a565b811461399d57600080fd5b50565b6139a981613796565b81146139b457600080fd5b5056fea2646970667358221220155bedca722c379fa0b36e534e4a1681abc83eedeec80ef7c95203101b3ad34564736f6c63430008000033",
  "immutableReferences": {},
  "source": "// SPDX-License-Identifier: MIT\npragma solidity ^0.8.0;\n\nimport \"../node_modules/@openzeppelin/contracts/token/ERC721/extensions/ERC721URIStorage.sol\";\nimport \"../node_modules/@openzeppelin/contracts/utils/Counters.sol\";\n\ncontract NFTLabStore is ERC721URIStorage {\n    address private _owner;\n\n    using Counters for Counters.Counter;\n    Counters.Counter private _tokenIds;\n\n    mapping(uint256 => NFTLab) private _nfts;\n    mapping(string => uint8) private _existingToken;\n    mapping(uint256 => NFTTransaction[]) private _history;\n\n    struct NFTLab {\n        address artist;\n        string artistId;\n        string hash;\n        string timestamp;\n    }\n\n    struct NFTTransaction {\n        uint256 tokenId;\n        address seller;\n        string sellerId;\n        address buyer;\n        string buyerId;\n        string price;\n        string timestamp;\n    }\n\n    event Minted(address artist, string artistId, string hash, string timestamp);\n    event Transferred(\n        uint256 tokenId,\n        address seller,\n        string sellerId,\n        address buyer,\n        string buyerId,\n        string price,\n        string timestamp\n    );\n\n    constructor(string memory name, string memory symbol) ERC721(name, symbol) {\n        _owner = msg.sender;\n    }\n\n    modifier isOwner() {\n        require(msg.sender == _owner, \"Only owner can do this operation\");\n        _;\n    }\n\n    function mint(NFTLab memory nft) public isOwner returns (uint256) {\n        require(_existingToken[nft.hash] == 0, \"Token exists yet\");\n\n        _tokenIds.increment();\n\n        uint256 newTokenId = _tokenIds.current();\n\n        _safeMint(nft.artist, newTokenId);\n        _setTokenURI(newTokenId, nft.hash);\n\n        _nfts[newTokenId] = nft;\n        _existingToken[nft.hash] = 1;\n\n        emit Minted(nft.artist, nft.artistId, nft.hash, nft.timestamp);\n\n        return newTokenId;\n    }\n\n    function transfer(NFTTransaction memory transaction) public isOwner {\n        uint256 tokenId = transaction.tokenId;\n\n        safeTransferFrom(transaction.seller, transaction.buyer, tokenId, \"\");\n\n        _history[tokenId].push(transaction);\n\n        emit Transferred(\n            transaction.tokenId,\n            transaction.seller,\n            transaction.sellerId,\n            transaction.buyer,\n            transaction.buyerId,\n            transaction.price,\n            transaction.timestamp\n        );\n    }\n\n    function getHistory(uint256 tokenId) public view isOwner returns (NFTTransaction[] memory) {\n        return _history[tokenId];\n    }\n\n    function _baseURI() internal pure override returns (string memory) {\n        return \"https://gateway.pinata.cloud/\";\n    }\n}\n",
  "sourcePath": "/home/filippofantinato/Desktop/Stage/NFT-solidity/contracts/NFTLabStore.sol",
  "compiler": {
    "name": "solc",
    "version": "0.8.0+commit.c7dfd78e.Emscripten.clang"
  },
  "schemaVersion": "3.4.1",
  "updatedAt": "2021-05-31T08:15:50.562Z",
  "devdoc": {
    "kind": "dev",
    "methods": {
      "approve(address,uint256)": {
        "details": "See {IERC721-approve}."
      },
      "balanceOf(address)": {
        "details": "See {IERC721-balanceOf}."
      },
      "getApproved(uint256)": {
        "details": "See {IERC721-getApproved}."
      },
      "isApprovedForAll(address,address)": {
        "details": "See {IERC721-isApprovedForAll}."
      },
      "name()": {
        "details": "See {IERC721Metadata-name}."
      },
      "ownerOf(uint256)": {
        "details": "See {IERC721-ownerOf}."
      },
      "safeTransferFrom(address,address,uint256)": {
        "details": "See {IERC721-safeTransferFrom}."
      },
      "safeTransferFrom(address,address,uint256,bytes)": {
        "details": "See {IERC721-safeTransferFrom}."
      },
      "setApprovalForAll(address,bool)": {
        "details": "See {IERC721-setApprovalForAll}."
      },
      "supportsInterface(bytes4)": {
        "details": "See {IERC165-supportsInterface}."
      },
      "symbol()": {
        "details": "See {IERC721Metadata-symbol}."
      },
      "tokenURI(uint256)": {
        "details": "See {IERC721Metadata-tokenURI}."
      },
      "transferFrom(address,address,uint256)": {
        "details": "See {IERC721-transferFrom}."
      }
    },
    "version": 1
  },
  "userdoc": {
    "kind": "user",
    "methods": {},
    "version": 1
  }
}